{
    "_format": "hh-sol-artifact-1",
    "contractName": "TodoContract",
    "sourceName": "contracts/Todo.sol",
    "abi": [
        {
            "anonymous": false,
            "inputs": [
                {
                    "indexed": false,
                    "internalType": "address",
                    "name": "user",
                    "type": "address"
                },
                {
                    "indexed": false,
                    "internalType": "uint256",
                    "name": "todoId",
                    "type": "uint256"
                },
                {
                    "indexed": false,
                    "internalType": "string",
                    "name": "todoTask",
                    "type": "string"
                },
                {
                    "indexed": false,
                    "internalType": "bool",
                    "name": "isCompleted",
                    "type": "bool"
                }
            ],
            "name": "AddTodo",
            "type": "event"
        },
        {
            "anonymous": false,
            "inputs": [
                {
                    "indexed": false,
                    "internalType": "uint256",
                    "name": "todoId",
                    "type": "uint256"
                },
                {
                    "indexed": false,
                    "internalType": "bool",
                    "name": "isCompleted",
                    "type": "bool"
                }
            ],
            "name": "ToggleCompletedStatus",
            "type": "event"
        },
        {
            "inputs": [],
            "name": "_idTodo",
            "outputs": [
                {
                    "internalType": "uint256",
                    "name": "",
                    "type": "uint256"
                }
            ],
            "stateMutability": "view",
            "type": "function"
        },
        {
            "inputs": [
                {
                    "internalType": "string",
                    "name": "_todoTask",
                    "type": "string"
                }
            ],
            "name": "addTodo",
            "outputs": [],
            "stateMutability": "nonpayable",
            "type": "function"
        },
        {
            "inputs": [
                {
                    "internalType": "uint256",
                    "name": "",
                    "type": "uint256"
                }
            ],
            "name": "idToTodo",
            "outputs": [
                {
                    "internalType": "uint256",
                    "name": "todoId",
                    "type": "uint256"
                },
                {
                    "internalType": "string",
                    "name": "todoTask",
                    "type": "string"
                },
                {
                    "internalType": "bool",
                    "name": "isCompleted",
                    "type": "bool"
                }
            ],
            "stateMutability": "view",
            "type": "function"
        },
        {
            "inputs": [
                {
                    "internalType": "uint256",
                    "name": "todoId",
                    "type": "uint256"
                }
            ],
            "name": "toggle",
            "outputs": [],
            "stateMutability": "nonpayable",
            "type": "function"
        }
    ],
    "bytecode": "0x608060405234801561001057600080fd5b5061099d806100206000396000f3fe608060405234801561001057600080fd5b506004361061004c5760003560e01c80636ff6d3cf14610051578063751ef7531461006f57806395ffebf51461008b5780639a046903146100a7575b600080fd5b6100596100d9565b604051610066919061050c565b60405180910390f35b6100896004803603810190610084919061055d565b6100df565b005b6100a560048036038101906100a091906105ef565b610213565b005b6100c160048036038101906100bc919061055d565b610378565b6040516100d0939291906106f0565b60405180910390f35b60005481565b60006001600083815260200190815260200160002090503373ffffffffffffffffffffffffffffffffffffffff166002600084815260200190815260200160002060009054906101000a900473ffffffffffffffffffffffffffffffffffffffff1673ffffffffffffffffffffffffffffffffffffffff1614610197576040517f08c379a000000000000000000000000000000000000000000000000000000000815260040161018e9061077a565b60405180910390fd5b8060020160009054906101000a900460ff16158160020160006101000a81548160ff0219169083151502179055507f3877fdfecbd94aa3181517280dd7d39e8af658029b64ba5062b385cb1595a059828260020160009054906101000a900460ff1660405161020792919061079a565b60405180910390a15050565b61021b610437565b6000805490506000604051806060016040528083815260200185858080601f016020809104026020016040519081016040528093929190818152602001838380828437600081840152601f19601f820116905080830192505050505050508152602001821515815250600160008481526020019081526020016000206000820151816000015560208201518160010190805190602001906102bd929190610450565b5060408201518160020160006101000a81548160ff021916908315150217905550905050336002600084815260200190815260200160002060006101000a81548173ffffffffffffffffffffffffffffffffffffffff021916908373ffffffffffffffffffffffffffffffffffffffff1602179055507f45731fbb66ae2db5dfa6bdcf1a21662e43ccf27513b012eb3172b326c1f40cff338386868560405161036a959493929190610840565b60405180910390a150505050565b60016020528060005260406000206000915090508060000154908060010180546103a1906108bd565b80601f01602080910402602001604051908101604052809291908181526020018280546103cd906108bd565b801561041a5780601f106103ef5761010080835404028352916020019161041a565b820191906000526020600020905b8154815290600101906020018083116103fd57829003601f168201915b5050505050908060020160009054906101000a900460ff16905083565b6000808154809291906104499061091e565b9190505550565b82805461045c906108bd565b90600052602060002090601f01602090048101928261047e57600085556104c5565b82601f1061049757805160ff19168380011785556104c5565b828001600101855582156104c5579182015b828111156104c45782518255916020019190600101906104a9565b5b5090506104d291906104d6565b5090565b5b808211156104ef5760008160009055506001016104d7565b5090565b6000819050919050565b610506816104f3565b82525050565b600060208201905061052160008301846104fd565b92915050565b600080fd5b600080fd5b61053a816104f3565b811461054557600080fd5b50565b60008135905061055781610531565b92915050565b60006020828403121561057357610572610527565b5b600061058184828501610548565b91505092915050565b600080fd5b600080fd5b600080fd5b60008083601f8401126105af576105ae61058a565b5b8235905067ffffffffffffffff8111156105cc576105cb61058f565b5b6020830191508360018202830111156105e8576105e7610594565b5b9250929050565b6000806020838503121561060657610605610527565b5b600083013567ffffffffffffffff8111156106245761062361052c565b5b61063085828601610599565b92509250509250929050565b600081519050919050565b600082825260208201905092915050565b60005b8381101561067657808201518184015260208101905061065b565b83811115610685576000848401525b50505050565b6000601f19601f8301169050919050565b60006106a78261063c565b6106b18185610647565b93506106c1818560208601610658565b6106ca8161068b565b840191505092915050565b60008115159050919050565b6106ea816106d5565b82525050565b600060608201905061070560008301866104fd565b8181036020830152610717818561069c565b905061072660408301846106e1565b949350505050565b7f4e4f5420415554484f52495a4544000000000000000000000000000000000000600082015250565b6000610764600e83610647565b915061076f8261072e565b602082019050919050565b6000602082019050818103600083015261079381610757565b9050919050565b60006040820190506107af60008301856104fd565b6107bc60208301846106e1565b9392505050565b600073ffffffffffffffffffffffffffffffffffffffff82169050919050565b60006107ee826107c3565b9050919050565b6107fe816107e3565b82525050565b82818337600083830152505050565b600061081f8385610647565b935061082c838584610804565b6108358361068b565b840190509392505050565b600060808201905061085560008301886107f5565b61086260208301876104fd565b8181036040830152610875818587610813565b905061088460608301846106e1565b9695505050505050565b7f4e487b7100000000000000000000000000000000000000000000000000000000600052602260045260246000fd5b600060028204905060018216806108d557607f821691505b602082108114156108e9576108e861088e565b5b50919050565b7f4e487b7100000000000000000000000000000000000000000000000000000000600052601160045260246000fd5b6000610929826104f3565b91507fffffffffffffffffffffffffffffffffffffffffffffffffffffffffffffffff82141561095c5761095b6108ef565b5b60018201905091905056fea26469706673582212208e611b6bfe8f50c458c68206090a96f3f2a54f10d7dfc954eff9f690019bbd9d64736f6c63430008090033",
    "linkReferences": {},
    "deployedLinkReferences": {}
}